:0600000002005B02136028
:01000B0032C2
:0100130032BA
:01001B0032B2
:030023000217AB16
:03002B00021511AA
:01003300329A
:01003B003292
:030043000216A101
:01004B003282
:030053000216ECA6
:03011F0002005685
:0500560012015880FEBC
:0D01220075BF0175BA1075BF001213AF1242
:06012F00134B12178A12A7
:0601350017061217161256
:06013B0017281212C61283
:0E01410004C812150A75B82175B90175F800C9
:09014F0075F910438F10D2AF22A4
:0A0158001201221219514002B28771
:0201620080FE1D
:0800BC00750800750900E4F568
:0400C4000AF50BF539
:0500C8000CF50DE4F54C
:0400CD000EF50FF528
:0400D10010F51175A0
:0600D5001201E4F513F531
:0500DB0014751503750A
:0600E000160675170075FD
:0600E600180075190075F9
:0400EC001B00C20033
:040164008582082266
:040168008582092261
:0E016C00E58275F008A4FAABF08AF005F07C8D
:09017A00FF7D007E007F00800C77
:0C018300EC2CFCED33FDEE33FEEF33FFFF
:0E018F00D5F0F1ECF4FCEDF4FDEEF4FEEFF42F
:09019D00FFEC520AED520BEE5288
:0501A6000CEF520DAC4E
:0C01AB001A7D007E007F008AF005F080C5
:0101B7000C3B
:0C01B800EC2CFCED33FDEE33FEEF33FFCA
:0A01C400D5F0F1EC420AED420BEE1B
:0601CE00420CEF420D227D
:0A01D400AA82AB83750A00E4F50B64
:0A01DE00FCFDEA420AEB420BEC4282
:0501E8000CED420D22A8
:0A01ED00AA82AB83750C00750D00AB
:0A01F7008B058A04E4FB420AEB4288
:060201000BEC420CED4283
:020207000D22C6
:0402090085821222B6
:04020D00439C0222EA
:04021100439C0122E7
:03021500A2002222
:07021800850E82850F83852E
:05021F0010F0E51122C2
:07022400850E82850F832285
:07022B00851082851183227A
:06023200D200E4F513F513
:0402380014F516F5AE
:09023C0015758C10758A10D28C26
:0802450030000A108D0280F860
:05024D0012044480F3DF
:03025200C28C2239
:08025500D2017402B5170AC2C0
:05025D0001751700759A
:040262001501800200
:0202660005177A
:03026800A20122CE
:07026B00D202E5177002C288
:010272000289
:080273007403B5170AC20275FD
:07027B001700751503800256
:0202820005175E
:03028400A20222B1
:08028700C2037401B51702D295
:01028F00036B
:090290007402B5172D751700AAC0
:0B029900127B0074042AFAE43BFBAC6B
:0C02A4001B7D00ECB5020CEDB5030875E5
:0702B0001B0075150280021E
:0202B700051B25
:0902B9007404B51606D20380029C
:0202C20005171E
:0302C400A2032270
:0702C700C204E5187002D229
:0102CE00042B
:0902CF007402B5180875180075D9
:0402D8001601800289
:0202DC00051803
:0302DE00A2042255
:0802E1007401B50803D380018C
:0102E900C351
:0802EA0092057402B5180875B5
:0702F20018007516028002DE
:0202F9000518E6
:0302FB00A2052237
:0C02FE0075F003E51884F4FA2404F5F010
:06030A0005F0E509800288
:02031000C31315
:0A031200D5F0FBFA139206740BB548
:06031C001811751800E540
:08032200087005751603800741
:05032A007516048002BD
:02032F000518AF
:03033100A20622FF
:0A03340075F003E51884F4FAAB122B
:0D033E00C3E49BFBEAC39BFA8AF005F0AA1A
:04034B000AAB0BAC42
:05034F000CAD0D800D56
:0D035400C3ED13FDEC13FCEB13FBEA13FAF1
:0A036100D5F0F0EA139207E51275DB
:0C036B00F003A4FAABF0AC187D00ECB578
:0A037700020EEDB5030A751800C26E
:060381000775160580025D
:02038700051857
:03038900A20722A6
:0A038C0075F003E51884F4FAAB12D3
:0C039600C3E49BFBEAC39BFAE518701C53
:0503A200F50EF50FF55A
:0A03A70010F511748055A8FB53A84F
:0D03B1007F75B2905386EF75B2D0EB42A875
:0C03BE0075F003E51884ABF0BB022C3096
:0E03CA0084298AF005F07A017B007C007D001A
:0203D800800C97
:0C03DA00EA2AFAEB33FBEC33FCED33FDB8
:0A03E600D5F0F1EA420EEB420FECF5
:0503F0004210ED421176
:0A03F500E51275F003A4FAABF0ACBA
:0C03FF00187D00ECB5020BEDB50307758E
:06040B0018007516052221
:03041100051822A9
:0A041400D208E5187018C284748045
:0E041E0055A8FA53A87F75B29043861075B2A8
:06042C00D0EA42A8C2085C
:090432007402B518087518007574
:04043B00160680021F
:02043F0005189E
:03044100A20822EC
:06044400E4B51502800E74
:07044A007401B51502800EDC
:070451007402B51515800EC1
:070458001202559283800C93
:07045F001202879283800561
:0504660012026B9283FD
:09046B00E51624FA4042E51625CD
:0404740016251690A3
:03047800047B738F
:07047B0002048D020494024B
:06048200049B0204A2022B
:0504880004A90204AE0E
:07048D001202C79284801FD8
:070494001202E192848018BE
:07049B001202FE92848011A1
:0704A2001203349284800A6A
:0504A90012038C800528
:0504AE00120414928409
:0704B3007406B51602800576
:0504BA007403B51508F4
:0704BF00751800751700C25B
:0104C6000035
:0104C7002212
:0904C80075D97175DA0075DC01CB
:0A04D100E5DC30E00553D8FE80F6AC
:0C04DB0075D98075DA0075DB4175D81505
:0E04E700E5D820E1FB75D9C075DA0075DB435E
:0304F50075D815A2
:0E04F800E5D820E1FB75D80475DB0075DC004B
:0305060075D83570
:0E050900E5D820E1FB75DB0375DC0075D83505
:0E051700E5D820E1FB75DB5F75DC1875D83583
:0B052500E5D820E1FB75DD6075D845CE
:0E053000E5D820E1FB75DB0075DC0075DD0011
:03053E0075D871FC
:0E054100E5D820E1FB75B20243900843910813
:0D054F0075B20043910875D97175DA0090FE
:0E055C000002E4F5F074021206A4900002758D
:0E056A00F00174021206A475D90775DA049028
:0E057800000075F0A8740E12066075D8089089
:0E058600000075F08074C112066075D80890F0
:0E0594000000E4F5F012066075D80890000033
:0E05A200E4F5F012066075D80890FFFF75F0C2
:0E05B000FF743F12066075D808900000E4F555
:0E05BE00F012066075D808900000E4F5F01207
:0E05CC00066075D80890000075F002740412E5
:0E05DA00066075D90F75DA0490000075F0A860
:0E05E800740E12066075D80890000075F0C001
:0E05F60074C112066075D808900000E4F5F09C
:0D06040012066075D808900000E4F5F012B1
:0E061100066075D80890FFFF75F0FF743F1269
:0E061F00066075D808900100E4F5F012066040
:0E062D0075D808900000E4F5F012066075D84C
:0E063B000890000075F002E412066075D9C048
:0606490075DA0075D8000F
:0B064F00E5D820E1FB53DBBE75D8119D
:06065A00E5D820E1FB22BF
:0A066000AA82AB83ACF0FD8A238B65
:04066A00248C258D2A
:05066E00268523DB8559
:0606730024DC8525DD8575
:0506790026DE75D8F13A
:06067E00E5D820E1FB229B
:0306840075D80026
:0A068700E5D820E1FB85DB2785DCC8
:060691002885DD2985DE4D
:050697002A8527828581
:06069C0028838529F0E52A
:0206A2002A220A
:0606A40012066075DC0186
:0A06AA00E5DC30E00553D8FE80F6D1
:0106B4002223
:0206B500AA8217
:0E06B700E5D820E1FBC0D9C0DAC0DBC0DCC052
:0B06C500DDC0DEEAC40354F8F5328506
:0C06D00032D9EA75F008A4FAACF08A05F3
:0B06DC0074042CFE7D008EDA75D8003F
:0A06E700E5D820E1FBAD2BAE2CAFEF
:0C06F1002D8D828E838FF0E5DE121BE35E
:0C06FD0074042532F5D974042A74043CFE
:08070900F9780089DA75D800C7
:0E071100E5D820E1FB740A2DF8E43EF98F03D1
:0E071F00888289838BF0E5DB121BE3740A2DC0
:07072D00F52FE43EF5308FCB
:08073400317401252FFBE435AF
:0A073C0030F8A9318B82888389F020
:0C074600E5DC121BE37402252FFBE435F8
:0A07520030F8A9318B82888389F00A
:0C075C00E5DD121BE37403252FFBE435E0
:0A07680030F8A9318B82888389F0F4
:0B077200E5DE121BE375D80475D8000B
:0E077D00E5D820E1FB740E2DF8E43EF98F0361
:0E078B00888289838BF0E5DB121BE3740E2D50
:0E079900FBE43EF88F01C005C006C0077401E6
:0E07A7002BFDE438FE89078D828E838FF0E5EE
:0E07B500DC121BE374022BFDE438FE89078D75
:0E07C300828E838FF0E5DD121BE374032BFBA7
:0E07D100E438F88B82888389F0E5DE121BE3A2
:0C07DF0074072532F5D974072A74043C15
:0E07EB00FD7B008DDA75D800D007D006D00552
:0E07F900E5D820E1FBE5DC30E328C002C004B7
:0E08070074012DFBE43EF88F018B82888389FB
:0E081500F0121D2AFA4302088B82888389F0B4
:08082300EA121BE3D004D0022D
:06082B0075D80875D80025
:0D083100E5D820E1FBE5DE20E503020949E2
:0E083E00C002C00474022DFBE43EF88F018B53
:0E084C0082888389F0E5DB121BE374022DF530
:06085A002FE43EF5308F93
:08086000317401252FFAE43583
:0A08680030FCAB318A828C838BF0E8
:0C087200E5DC121BE37402252FFAE435CC
:0A087E0030FBAC318A828B838CF0D2
:0C088800E5DD121BE37403252FFAE435B4
:0A08940030FBAC31741F55DEF88A0A
:0E089E00828B838CF0121BE375D80875D80886
:0A08AC0075D80875D800D004D002FA
:0E08B600E5D820E1FBC002C00474062DFBE46F
:0D08C4003EF88F018B82888389F0E5DB12FE
:0A08D1001BE374062DF52FE43EF53D
:0608DB00308F317401258D
:0708E1002FFAE43530FCABF7
:0C08E800318A828C838BF0E5DC121BE36C
:0A08F4007402252FFAE43530FBAC46
:0C08FE00318A828B838CF0E5DD121BE355
:0A090A007403252FFAE43530FBAC2E
:0C09140031741F55DE8A828B838CF01238
:0E0920001BE374012DFAE43EFB8F048A828BE8
:0E092E00838CF0121D2AF84300048A828B830A
:0D093C008CF0E8121BE3D004D002020AE4A4
:0E094900C002C00474022DFBE43EF88F01745E
:0E095700FC55DD0303543F8B82888389F01228
:0A0965001BE374022DF52FE43EF5AC
:06096F00308F31740125F8
:050975002FF533E4350D
:04097A0030F534859B
:07097E003135741F55DE85C1
:06098500338285348385F6
:08098B0035F0121BE374022594
:070993002FFBE43530FCAA44
:0C099A00318B828C838AF0E4121BE37422
:0909A60003252FFAE43530FBAC07
:0C09AF00318A828B838CF0E4121BE385FC
:0609BB00338285348385C0
:0C09C10035F0121D2A5403030354C0F546
:0509CD002E8533828538
:0609D20034838535F012AC
:0A09D8001D2A0303543F8533828576
:0609E20034838535F0129C
:0E09E8001BE374022DFAE43EFB8F048A828B1F
:0C09F600838CF0121D2AF8E52E28F88AE8
:0E0A0200828B838CF0121BE375D80875D80820
:0A0A100075D80875D800D004D00294
:0E0A1A00E5D820E1FBC002C00474062DFBE409
:0E0A28003EF88F0174FC55DD0303543F8B82B2
:0C0A3600888389F0121BE374062DF53351
:090A4200E43EF5348F3574012502
:050A4B0033F52FE43536
:040A500034F53085C4
:070A54003531741F55DE85EA
:060A5B002F828530838527
:080A610031F0121BE3740225C1
:070A690033FBE43534FCAA65
:0C0A7000358B828C838AF0E4121BE37447
:090A7C00032533FAE43534FBAC28
:0C0A8500358A828B838CF0E4121BE38521
:060A91002F8285308385F1
:0C0A970031F0121D2A5403030354C0F573
:050AA3002E852F828565
:060AA80030838531F012DD
:0A0AAE001D2A0303543F852F8285A3
:060AB80030838531F012CD
:0E0ABE001BE374062DFAE43EFB8F048A828B44
:0C0ACC00838CF0121D2AF8E52E28F88A11
:0C0AD800828B838CF0121BE3D004D00250
:0C0AE40074022532F5D974022A74043C17
:080AF000FC7A008CDA75D800D5
:0E0AF800E5D820E1FB74122DFAE43EFB8F04DA
:0E0B06008A828B838CF0E5DD121BE374122DC6
:090B1400FDE43EFE0DBD00010EE2
:0E0B1D008D828E838FF0E5DE121BE3D0DED0DA
:0A0B2B00DDD0DCD0DBD0DAD0D92217
:040B3500AA827B0015
:0E0B3900E5D820E1FBC0D9C0DAC0DBC0DCC0CB
:0E0B4700DDC0DEEAC40354F8FC74072CF5D9B7
:0E0B5500EA75F008A42407740435F0FC7A0059
:050B63008CDA75D800DA
:0E0B6800E5D820E1FBE5DC20E01675DB20750A
:0B0B7600DC0075DD0075DE0075D8F1B5
:070B8100E5D820E1FB7B0138
:0E0B8800D0DED0DDD0DCD0DBD0DAD0D98B824D
:010B9600223C
:040B9700AA827B00B3
:0E0B9B00E5D820E1FBC0D9C0DAC0DBC0DCC069
:0E0BA900DDC0DEEAC40354F8FC74072CF5D955
:0E0BB700EA75F008A42407740435F0FC7A00F7
:050BC5008CDA75D80078
:0C0BCA00E5D820E1FBE5DB30E3027B0115
:0E0BD600D0DED0DDD0DCD0DBD0DAD0D98B82FF
:010BE40022EE
:020BE500AA82E2
:0E0BE700E5D820E1FBC0D9C0DAC0DBC0DCC01D
:0E0BF500DDC0DEEAC40354F8FB74072BF5D90B
:0E0C0300EA75F008A42407740435F0FB7A00AB
:0E0C11008BDA75DB0075DC0075DD2075DE0703
:030C1F0075D8F194
:0E0C2200E5D820E1FBD0DED0DDD0DCD0DBD089
:040C3000DAD0D9221B
:020C3400AA8292
:0E0C3600E5D820E1FBC0D9C0DAC0DBC0DCC0CD
:0E0C4400DDC0DEEAC40354F8FB74072BF5D9BB
:0E0C5200EA75F008A4FAACF074072A74043CAA
:0E0C6000FE7D008EDA75DB2075DC0075DD0090
:060C6E0075DE0075D8F1EF
:0E0C7400E5D820E1FB74062BF5D974062A742E
:0A0C8200043CFE8EDAAD36AE37AF4B
:0C0C8C0038C00374012DF8E43EF98F031A
:0E0C9800888289838BF0121D2AF8D00320E297
:040CA60003020DB682
:030CAA0075D800FA
:0E0CAD00E5D820E1FBC00353DEE074022DF811
:0E0CBB00E43EF98F03888289838BF0121D2A94
:0A0CC900F5DB74022DF53AE43EF568
:060CD3003B8F3C7401257B
:070CD9003AFBE4353BF8A9EA
:0C0CE0003C8B82888389F0121D2AF5DC11
:0A0CEC007402253AFBE4353BF8A939
:0C0CF6003C8B82888389F0121D2AF5DDFA
:0A0D02007403253AFBE4353BF8A921
:0C0D0C003C8B82888389F0121D2AFB7446
:0E0D18001F5BF5F0742045F042DE75D8F1D077
:010D260003C9
:0E0D2700E5D820E1FB75D80875D80875D80806
:030D350075D8006E
:0E0D3800E5D820E1FBC00353DEE074062DF881
:0E0D4600E43EF98F03888289838BF0121D2A08
:0A0D5400F5DB74062DF53AE43EF5D8
:060D5E003B8F3C740125EF
:070D64003AFBE4353BF8A95E
:0C0D6B003C8B82888389F0121D2AF5DC85
:0A0D77007402253AFBE4353BF8A9AD
:0C0D81003C8B82888389F0121D2AF5DD6E
:0A0D8D007403253AFBE4353BF8A996
:0C0D97003C8B82888389F0121D2AFB74BB
:090DA3001F5B42DE75D8F1D0039C
:080DAC00E5D820E103020EA1CD
:020DB40080F6C7
:030DB60075D800ED
:0E0DB900E5D820E1FBC00353DEC074022DF527
:060DC7003AE43EF53B8F0B
:050DCD003C853A82851F
:060DD2003B83853CF0129A
:0C0DD8001D2A54C023235403F53975DB99
:0A0DE4000075DC00853A82853B8330
:0C0DEE00853CF0121D2A25E025E0F5DD13
:0E0DFA0074022DFBE43EF88F010BBB000108D4
:0E0E08008B82888389F0121D2A540725E0256D
:0C0E1600E0FBE5392B42DE75D8F1D0037B
:0E0E2200E5D820E1FB75D80875D80875D8080A
:030E300075D80072
:0E0E3300E5D820E1FBC00353DEE074062DF588
:060E41003AE43EF53B8F90
:050E47003C853A8285A4
:060E4C003B83853CF0121F
:0C0E52001D2A54C023235403F53975DB1E
:0A0E5E000075DC00853A82853B83B5
:0C0E6800853CF0121D2A25E025E0F5DD98
:0E0E740074062DFBE43EF88F010BBB00010855
:0E0E82008B82888389F0121D2A540725E025F3
:0C0E9000E0FBE5392B42DE75D8F1D00301
:050E9C00E5D820E1FB98
:0E0EA10074022BF5D974022A74043CF989DA24
:0E0EAF00C00374122DF8E43EF98F0388828987
:0E0EBD00838BF0121D2AF5DD74122DFBE43E2E
:080ECB00F88F010BBB000108C8
:0E0ED3008B82888389F0121D2AF5DE75D8C146
:020EE100D0033C
:0E0EE300E5D820E1FB75D80875D8088D828E01
:0B0EF100838FF0121D2AF5DE75D881FA
:0E0EFC00E5D820E1FB74072BF5D974072A74A2
:0A0F0A00043CFC7A008CDA75D80074
:0D0F1400E5D820E1FBE5DC20E303021049F5
:0E0F210075D80875D808740E2DFAE43EFB8FC3
:0E0F2F0004C005C006C0078A828B838CF012B6
:090F3D001D2AF8A3121D2AA312BB
:0E0F46001D2AA3121D2A790088DB8A828B8364
:0C0F54008CF0121D2AA3121D2AFEA3120D
:0E0F60001D2AA3121D2A8EDC8A828B838CF040
:090F6E00121D2AA3121D2AA31270
:0E0F77001D2AFFA3121D2A78008FDD8A828BAF
:0C0F8500838CF0121D2AA3121D2AA31257
:0E0F91001D2AA3121D2AFD7A007B007C008D14
:0A0F9F00DE75D8F1D007D006D005AA
:0E0FA900E5D820E1FB75D808740A2DFDE43E62
:0D0FB700FE8D828E838FF0121D2AFAA31288
:080FC4001D2AA3121D2AA3122D
:0E0FCC001D2A8ADB8D828E838FF0121D2AA3D0
:0A0FDA00121D2AFBA3121D2AA31208
:0E0FE4001D2A8BDC8D828E838FF0121D2AA3B6
:0A0FF200121D2AA3121D2AFCA312EF
:0E0FFC001D2A7B0078008CDD8D828E838FF0A5
:09100A00121D2AA3121D2AA312D3
:0E1013001D2AA3121D2AFA7D007E007F008A8E
:04102100DE75D8F1AF
:0E102500E5D820E1FB75D80475D80475D80411
:0E10330075DB4075DC0075DD2875DE0675D8AE
:01104100F1BD
:07104200E5D830E11680F94A
:0E10490075DB4075DC0075DD2075DE0075D8A6
:01105700F1A7
:05105800E5D820E1FBDA
:0D105D00D0DED0DDD0DCD0DBD0DAD0D9225F
:02106A00AA8258
:0E106C00E5D820E1FBC0D9C0DAC0DBC0DCC093
:0E107A00DDC0DEEAC40354F8FB74072BF5D981
:0E108800EA75F008A42407740435F0FB7A0022
:0E1096008BDA75DB0075DC0075DD0875DE0099
:0310A40075D8F10B
:0E10A700E5D820E1FB75D80875D80875D80883
:0410B500853D4085B0
:0310B9003E418530
:0310BC003F42852B
:0610BF004082854183859B
:0810C50042F0121D2AFDA312E6
:0A10CD001D2AFEA3121D2AFFA31224
:0E10D7001D2AF88D0189DB8E038BDC7A007BED
:0E10E500008F0479008CDD7D007E007F008886
:0410F300DE75D8F1DD
:0C10F700E5D820E1FB7404F5D82540F595
:051103003DE43541F55B
:031108003E8542DF
:04110B003FAA3DAB0F
:0A110F003EAC3F8A828B838CF01205
:0A1119001D2AFAA3121D2AFBA312DF
:0E1123001D2AFCA3121D2AFD8A068EDB8B07F7
:0E1131008FDC7E007F008C00790088DD7A0064
:09113F007B007C008DDE75D8F107
:0E114800E5D820E1FB75D80475D80475DB40AE
:0C11560075DC0075DD2075DE0075D8F139
:0E116200E5D820E1FBD0DED0DDD0DCD0DBD044
:04117000DAD0D922D6
:04117400AA827B00D0
:0E117800E5D820E1FBC0D9C0DAC0DBC0DCC086
:0E118600DDC0DEEAC40354F8FC74072CF5D972
:0E119400EA75F008A42407740435F0FC7A0014
:0511A2008CDA75D80095
:0E11A700E5D820E1FB740155DCFA740855DB35
:0E11B5004A701375DB20F5DCF5DDF5DE75D82C
:0111C300F13A
:0711C400E5D820E1FB7B01EF
:0E11CB00D0DED0DDD0DCD0DBD0DAD0D98B8204
:0111D90022F3
:0411DA00AA827B006A
:0E11DE00E5D820E1FBC0D9C0DAC0DBC0DCC020
:0E11EC00DDC0DEEAC40354F8FC74072CF5D90C
:0E11FA00EA75F008A42407740435F0FC7A00AE
:051208008CDA75D8002E
:0E120D00E5D820E1FBE5DB30E41675DB10755B
:0B121B00DC0075DD0075DE0075D8F109
:07122600E5D820E1FB7B018C
:0E122D00D0DED0DDD0DCD0DBD0DAD0D98B82A1
:01123B002290
:02123C00AA8284
:0E123E00E5D820E1FBC0D9C0DAC0DBC0DCC0BF
:0E124C00DDC0DEEA030354C0FB74852BF5D928
:0E125A00EA75F040A42485E435F0FB7A008BA1
:04126800DA75D8005B
:0E126C00E5D820E1FB85DC82D0DED0DDD0DCD1
:07127A00D0DBD0DAD0D9224D
:02128100AA823F
:0E128300E5D820E1FBC0D9C0DAC0DBC0DCC07A
:0E129100DDC0DEEA030354C0FB74852BF5D9E3
:0E129F00EA75F040A42485E435F0FB7A008B5C
:0412AD00DA75D80016
:0E12B100E5D820E1FB85DB82D0DED0DDD0DC8D
:0712BF00D0DBD0DAD0D92208
:0E12C60075A30175A60075A700759C02759DA5
:0E12D40000759E01759F0075A40175A500753B
:0E12E200A30075FE0175FF00759A00759B0054
:0E12F000759E00759F0075A30275FA0075FBD0
:0E12FE000075FE0075FF0075FC2075FD007583
:0E130C00A700759A00759B0275A600759E00DD
:0E131A00759F00759C00759D0075A30375FFFF
:0E13280020759E00759F0075A40075B20243EB
:0E133600B02053B1DF75B20043B12075A300A3
:07134400759C40759D4022DD
:0E134B0075BB00C28875A83175E81075B70033
:0713590075BA0075B3002214
:0C136000C022C0E0C0F0C082C083C00208
:0E136C00C003C004C005C006C007C000C00119
:0E137A00C0D075D000C08F538FFE75BFB0532A
:0E138800B4FE1219AE75BFF0D08FD0D0D001D8
:0E139600D000D007D006D005D004D003D0027E
:0B13A400D083D082D0F0D0E0D0223205
:0713AF007586987591C022BC
:0B13B600AA82AB837C107D00AE46AF26
:0113C10047E4
:0813C2001CEC2543F548E4355D
:0413CA0044F5498518
:0313CE00454A8EFF
:0A13D100748F758A828B83C002C0FE
:0E13DB0003C004C005C006C007121BFCA88298
:0E13E900A983D007D006D005D004D003D002CF
:0A13F70074302885488285498385FB
:061401004AF0121BE38516
:061407004882854983853F
:0C140D004AF0121D2AF8C374B988F0637D
:0A141900F08095F0501D8548828593
:061423004983854AF01226
:0B1429001D2AF8740728F8854882850A
:061434004983854AF01215
:02143A001BE3B2
:0A143C008E748F758A828B83C004C2
:0E144600C005C006C007121A1BAA82AB83D0D5
:0E14540007D006D005D004EA4B60030213C295
:0A1462008D020DEA2543FAE435443B
:0A146C00FBAE458C070CEF2543FF93
:0A147600E43544F8A9458F8288830D
:0D14800089F0121D2AFF8A828B838EF012E4
:05148D001BE3BC100090
:0A14920040CEED2543FDE43544FA99
:0C149C00AB458D828A838BF0E4021BE3D9
:0C14A800AA82E583FB30E744740AB54ECD
:0714B40006E4B54F028002BF
:0214BB00803778
:0514BD00AC4BAD4CAE8C
:0C14C2004D8C828D838EF0742D121BE384
:0A14CE0074012CF54BE43DF54C8E43
:0B14D8004DC3E49AF582E49BF5838588
:0314E3004B4385F3
:0314E6004C4485EE
:0314E9004D4585E9
:0314EC004E4685E4
:0314EF004F470262
:0214F20013B62F
:0414F400854B43855C
:0314F8004C4485DC
:0314FB004D4585D7
:0314FE004E4685D2
:071501004F478A828B830231
:0215080013B618
:03008C00E478FF16
:03008F00F6D8FDA3
:0C00920075BF0375B3F075BF007800E87F
:07009E00440060077900E453
:0400A500F309D8FC87
:0800A90078E8E84404600C79DA
:0500B1000590F000E4E1
:0600B600F0A3D8FCD9FA0A
:07150A0043A82043E814226E
:0E151100C0E0C0F0C002C003C004C005C006A8
:0C151F00C0D075D000755000C08F538FF5
:01152B00FEC1
:0E152C00E5D820E1FBC0D9C0DAC0DBC0DCC0CE
:0B153A00DDC0DE75BF9010C70280000E
:08154500E5B620E00302167870
:0C154D0053B6FE75D9C175DA0075D800E0
:0E155900E5D820E1FBAADB75D9C175DA005395
:09156700023FEAF4F5DB75D8112E
:0E157000E5D820E1FB75D97075DA0075DB83D4
:0C157E0075DC0075DD0075DE0075D8F12D
:0E158A00E5D820E1FB75D95075DA0075D80060
:0D159800E5D820E1FBAADBBA20030216789B
:0E15A500EAC40354F8FB74072BF5D9EA75F07D
:0E15B30008A42407740435F0FC7B008CDA7564
:0215C100D80050
:0C15C300E5D820E1FB85DB508AF005F044
:0A15CF007B017C007D007E00800C93
:0C15D900EB2BFBEC33FCED33FDEE33FE9E
:0815E500D5F0F18B518C528D01
:0A15ED00538E5475D94875DA00E5F5
:0A15F70051F4F5DBE552F4F5DCE5F4
:0A16010053F4F5DDE554F4F5DE7551
:02160B00D8F114
:0C160D00E5D820E1FBE55030E12FEAC4F5
:0E1619000354F8FB74072BF5D9EA75F008A40A
:0E1627002407740435F0FC7B008CDA75DB0AB6
:0C16350075DC0075DD0075DE0075D8F175
:05164100E5D820E1FBEB
:0E16460075D97075DA0075DB8375DC0075DD13
:071654000075DE0075D8F1FE
:0E165B00E5D820E1FB75D95075DA0075D8008E
:0C166900E5D820E1FBAADBBA20028003D8
:031675000215A5B6
:0E16780075BFD0D0DED0DDD0DCD0DBD0DAD034
:0E168600D9D08FD0D0D006D005D004D003D05C
:0616940002D0F0D0E032AC
:07169A0090F00075F0002242
:0C16A100C022C0E0C0F0C082C083C002C4
:0E16AD00C003C004C005C006C007C000C001D5
:0E16BB00C0D075D000C08F438F0110C70280D1
:0116C900031D
:0316CA00121828CB
:0E16CD00D08FD0D0D001D000D007D006D005ED
:0E16DB00D004D003D002D083D082D0F0D0E073
:0316E900D02232DA
:0E16EC00C0E0C08F538FFE75BFA3E5B430E0A1
:0416FA000353B4FEE4
:0816FE0075BFE3D08FD0E0328C
:0E170600758902758A00758C10758B00758DC3
:021714000022B1
:0E17160075C4D075C58A75C2D075C38A75C1F9
:0417240018D2C222F3
:0E172800438F0175C43075C5F875C23075C3A6
:0A173600F875C100D2C2538FFE22E5
:0500F000E4F555F55692
:0817400085827485837585F034
:05174800767557537592
:06174D00584975595A7558
:061753005A52755B45755A
:061759005C52755D527543
:06175F005E4F755F52753C
:06176500600075610090B8
:0A176B00F3E875F000121B4CE4F5E2
:0417750055F5569040
:09177900F3E8E0F58212182105E5
:0617820055E4B555020517
:01178800560A
:01178900223D
:0E178A0075B2025390FD43910275B200439177
:0E1798000253B3FE75BD0075985075BE9B439D
:0517A600BD01D2AC22E0
:0C17AB00C022C0E0C0F0C082C083C002B9
:0E17B700C003C004C005C006C007C000C001CA
:0E17C500C0D075D000C08F538FFE75BF80104E
:0417D3009902801DDA
:0717D700E55524E8F582E569
:0A17DE005634F3F583E0FA600D8A3B
:0817E800821218210555E4B539
:0417F0005502055643
:0517F4001098028000C6
:0E17F90075BFC0D08FD0D0D001D000D007D0A7
:0E18070006D005D004D003D002D083D082D00A
:06181500F0D0E0D0223209
:06181B00C29885998222AB
:07182100AA82C2998A9922F4
:0600F500E4F562F563F57D
:0500FB0064F565E4F569
:0401000066F567F544
:0501040068F569E4F557
:050109006AF56BE4F54E
:05010E006CF56DE4F545
:030113006EF56F17
:0818280012194740030218B633
:0718300012194A1218D80535
:061837006AE4B56A020537
:01183D006B3F
:0E183E0012194AAA82AB83C374309A74F58BD8
:0E184C00F063F08095F0401712194AAA82ABA3
:0D185A0083C3EA94D0EB6480940A40051229
:041867001944500AC6
:07186B00056CE4B56C0905F2
:031872006D800581
:05187500E4F56CF56DC7
:0A187A0074F4B56A307401B56B2BED
:071884007574F47575017520
:06188B0076007577008570
:061891006282856383857D
:0518970064F0E565129C
:07189C001C4985826685836B
:0518A3006785F068F507
:0518A8006912190E1287
:0218AD0018F72A
:0718AF00E4F56EF56F8008FF
:0718B600056EE4B56E0205AA
:0118BD006FBB
:0A18BE007405B56C06E4B56D0280F8
:0118C8000C13
:0A18C9007405B56E06E4B56F0280E9
:0118D3000113
:0118D40022F1
:0318D50002193EB7
:0C18D800AA82E583FB3395E0FCFDEA25C5
:0518E40062F562EB3526
:0518E90063F563EC351E
:0518EE0064F564ED3516
:0418F30065F5652210
:0618F700E4F562F563F563
:0418FD0064F565F534
:0419010066F567F52B
:0519050068F569E4F53E
:04190A006AF56B22ED
:0A190E00AA82AB838A70EBF57133F7
:0A19180095E0F572F5737582001278
:081922000B35E5826015753DEF
:03192A0070753E97
:08192D0000753F4075820012B5
:08193500106A758200020BE547
:01193D002287
:06193E00758200020BE5BA
:06011600E4F51CF51DC21A
:03011C0009C20A0B
:03194400A20A22D2
:03194700A20922D0
:07194A00851C82851D83222C
:0D19510012021175820112016875820012E8
:0C195E00016475821112020990034A1204
:09196A0001D4120232758201124F
:06197300016412023212B1
:0E1979000224AA82AB83BA4A05BB0302800295
:02198700D32269
:0E198900758200120168758200120164758279
:0B199700041202099000011201D4129A
:0219A20002320F
:0A19A40012021540FB12020DC322CF
:0E19AE0075820412016875820112016475824F
:0819BC0012120209120232129C
:0E19C4000224E5828583F02404F582E435F0E8
:0E19D200F583121CCFAA82AB83ACF0FDC002DD
:0E19E000C003C004C00590EB8575F001744093
:0E19EE00121A44AA82AB83ACF0FDE58124FC02
:0E19FC00F5818A828B838CF0ED121C9B858214
:051A0A001C85831D1284
:0A1A0F00022BAA82EAA2E1920AD299
:021A19000922A0
:0E1E090075BF0143B70843B70443B60453B690
:031E1700F7780A4F
:041E1A00D9FED8FC19
:031E1E0043B602C6
:0E1E2100E5B620E1FB30E0F543B70853B7FB10
:0C1E2F0075BB9853B70F43B7A043B70230
:0C1E3B00E5B730E0FB53B7F775BF00229D
:051A1B007A10E4FBFC61
:0E1A2000E58225E0F582E58333F583EB33FBA9
:0A1A2E00EC33FCEB9574F5F0EC9539
:091A3800754006FCABF04382018D
:031A4100DADD22C9
:061A4400121B8CBC000324
:031A4A00021CFC7F
:081A4D00EF60FA30D502B2D1BE
:081A5500E583B4FF03021D123A
:081A5D00E582B4FF03021D1233
:0B1A6500258340072482400B021CFC7C
:081A70002483145003021D122F
:0E1A7800F582EA8DF0A4A8F0EA8EF0A428F81A
:0E1A8600E435F0F9EB8DF0A428E935F0F9E431
:0E1A940033CA8FF0A429F9EA35F0FAEBF88E88
:0E1AA200F0A429F9EA35F0FAE433FBEC8DF0FC
:0E1AB000A429F9EA35F0FAE43BFBE88FF0A434
:0E1ABE002AFAEB35F0FBE433CCFD8EF0A42ABF
:0E1ACC00FAEB35F0FBE43CFCED8FF0A42BFBB5
:0A1ADA00EC35F0FC20E703121BBA04
:031AE400021CDB06
:081AE700FB7A20E4FCFDFEFF88
:0E1AEF00E5822582F582E58333F583E5F03349
:0B1AFD00F5F0EB33FB4017DAE9804204
:0E1B0800E5822582F582E58333F583E5F0332F
:051B1600F5F0EB33FBCC
:0E1B1B00EC33FCED33FDEE33FEEF33FFEC95C3
:061B290074ED9575EE95C8
:081B2F0076EF95774013EC9569
:081B370074FCED9575FDEE95BF
:091B3F0076FEEF9577FF43820169
:021B4800DABE03
:021B4A00EB228C
:081B4C0085827785837885F01E
:041B540079AD74AE45
:041B580075AF76A847
:041B5C0077A978AA43
:011B6000790B
:0E1B61008D828E838FF0121D2AFBA3AD82AE03
:0E1B6F0083888289838AF0EB121BE3A3A8828D
:0A1B7D00A983EB70DF85778285787D
:051B8700838579F022C6
:0D1B8C00AA82AB83A2F73392D16002D2F798
:0E1B9900F582ACF0E58124F9F8E6FD08E6FEE1
:0E1BA7000886F008E6A2F73392D56002D2F766
:051BB500F583AFF022F2
:021BBA007804AD
:0E1BBC00EC700DC9CACBFCE58224F8F582D886
:021BCA00F12206
:021BCC0078207F
:0E1BCE0020E7111582C3E933F9EA33FAEB334D
:061BDC00FBEC33FCD8EC29
:011BE20022E0
:0E1BE30020F71030F6118883A88220F507F64F
:051BF100A883758300CC
:011BF60022CC
:031BF700F280F782
:021BFA00F022D7
:080068007900E94400601D7AF3
:0B0070000043A201901E0953A2FE9065
:02007B00F4E8A7
:0E007D00E443A20193A353A2FEF0A3D9F3DA49
:01008B00F183
:081BFC00E574457560467A01AD
:071C0400E57425E0F574E52D
:091C0B0075334012F575E5829570
:0A1C140074E583957540030A80E62D
:031C1E00C3E575A6
:071C210013F575E57413F5DE
:011C28007447
:0A1C2900C3E5829574F5F0E583959C
:081C3300754005F58385F08280
:071C3B00C3E57513F575E523
:061C42007413F574DAE1F1
:011C48002279
:0E1C4900FBC2D530E715D2D5E4C39582F582F3
:0D1C5700E49583F583E495F0F5F0E49BFB44
:0A1C6400E57730E717B2D5E4C39529
:051C6E0074F574E4951B
:051C730075F575E49514
:051C780076F576E4950D
:031C7D0077F57781
:0E1C8000EB121AE730D513FBE4C39582F58210
:0C1C8E00E49583F583E495F0F5F0E49B09
:011C9A002227
:0E1C9B00121D59700AE582458345F070012242
:011CA900E456
:031CAA0030D11224
:0E1CAD00F4700BE5F0F47006E58330E70122D9
:041CBB0090800022F3
:0C1CBF00700AE5F07006E58320E70122C2
:041CCB00907FFF22E5
:0C1CCF00E4AC83AB82FAF9748E021D4F66
:061CDB00B98003EA13B317
:0E1CE1004010EA2401FAE43BFBE43CFC500412
:041CEF007C8005826E
:091CF300BC000EBB000BBA000896
:081CFC00E4F5F0F583F5822206
:0E1D0400A2D1E582138CF092F78B838A8222A3
:0D1D1200E4F583F58275F080F4A2D1132270
:0B1D1F00E4F583F58275F0C0747F22AC
:03005B0075817F2D
:0A005E00121E09E58260030200563D
:0E1D2A0020F71430F6148883A88220F507E60F
:061D3800A8837583002260
:031D3E00E280F749
:031D4100E4932206
:021D4400E0229B
:091D4600FCABF0AA83A982749E93
:021D4F00C2D1FF
:081D5100F582121BBA021CDB33
:0A1D5900121DB4C3749E9582403938
:081D63007900121DC630D126E3
:0E1D6B00E9F42401F582EAF43400F583EBF488
:0E1D79003400F5F0ECF43400700AE582458386
:051D870045F07001228F
:011D8C00E472
:041D8D0030E70F220A
:0B1D9100EC20E71489828A838BF0228B
:031D9C0030D10A39
:0A1D9F00E4F582F583F5F07480226C
:0B1DA90074FFF582F583F5F0747F22D3
:0D1DB400AA82AB83A2F73392D16002D2F76E
:051DC100F582ACF022E8
:091DC6006040F82582500274FF10
:0E1DCF00F582E824F8501ECCCBCAF9E4CC24EF
:0E1DDD00F85014CBCAF9E4CB24F8500BCAF925
:091DEB00E4CA24F8500379002237
:051DF40024086010F856
:0E1DF900C3EC13FCEB13FBEA13FAE913F9D861
:011E0700F1E9
:011E080022B7
:00000001FF
