:0600000002005B02135D2B
:01000B0032C2
:0100130032BA
:01001B0032B2
:030023000217A819
:03002B0002150EAD
:01003300329A
:01003B003292
:0300430002169E04
:01004B003282
:030053000216E9A9
:03011F0002005685
:0500560012015580FEBF
:0D01220075BF0175BA1075BF001213AC1245
:06012F0013481217031231
:060135001713121725123A
:06013B0012C31204C512FC
:0E014100150775B82175B90175F80075F9102C
:06014F00438F10D2AF2225
:0A0155001201221219494002B2877C
:02015F0080FE20
:0800BC00750800750900E4F568
:0400C4000AF50BF539
:0500C8000CF50DE4F54C
:0400CD000EF50FF528
:0400D10010F51175A0
:0600D5001201E4F513F531
:0500DB0014751503750A
:0600E000160675170075FD
:0600E600180075190075F9
:0400EC001B00C20033
:040161008582082269
:040165008582092264
:0E016900E58275F008A4FAABF08AF005F07C90
:09017700FF7D007E007F00800C7A
:0C018000EC2CFCED33FDEE33FEEF33FF02
:0E018C00D5F0F1ECF4FCEDF4FDEEF4FEEFF432
:09019A00FFEC520AED520BEE528B
:0501A3000CEF520DAC51
:0C01A8001A7D007E007F008AF005F080C8
:0101B4000C3E
:0C01B500EC2CFCED33FDEE33FEEF33FFCD
:0A01C100D5F0F1EC420AED420BEE1E
:0601CB00420CEF420D2280
:0A01D100AA82AB83750A00E4F50B67
:0A01DB00FCFDEA420AEB420BEC4285
:0501E5000CED420D22AB
:0A01EA00AA82AB83750C00750D00AE
:0A01F4008B058A04E4FB420AEB428B
:0601FE000BEC420CED4287
:020204000D22C9
:0402060085821222B9
:04020A00439C0222ED
:04020E00439C0122EA
:03021200A2002225
:07021500850E82850F838531
:05021C0010F0E51122C5
:07022100850E82850F832288
:07022800851082851183227D
:06022F00D200E4F513F516
:0402350014F516F5B1
:0902390015758C10758A10D28C29
:0802420030000A108D0280F863
:05024A0012044180F3E5
:03024F00C28C223C
:08025200D2017402B5170AC2C3
:05025A0001751700759D
:04025F001501800203
:0202630005177D
:03026500A20122D1
:07026800D202E5177002C28B
:01026F00028C
:080270007403B5170AC2027500
:070278001700751503800259
:02027F00051761
:03028100A20222B4
:08028400C2037401B51702D298
:01028C00036E
:09028D007402B5172D751700AAC3
:0B029600127B0074042AFAE43BFBAC6E
:0C02A1001B7D00ECB5020CEDB5030875E8
:0702AD001B00751502800221
:0202B400051B28
:0902B6007404B51606D20380029F
:0202BF00051721
:0302C100A2032273
:0702C400C204E5187002D22C
:0102CB00042E
:0902CC007402B5180875180075DC
:0402D500160180028C
:0202D900051806
:0302DB00A2042258
:0802DE007401B50803D380018F
:0102E600C354
:0802E70092057402B5180875B8
:0702EF0018007516028002E1
:0202F6000518E9
:0302F800A205223A
:0C02FB0075F003E51884F4FA2404F5F013
:0603070005F0E50980028B
:02030D00C31318
:0A030F00D5F0FBFA139206740BB54B
:060319001811751800E543
:08031F00087005751603800744
:050327007516048002C0
:02032C000518B2
:03032E00A2062202
:0A03310075F003E51884F4FAAB122E
:0D033B00C3E49BFBEAC39BFA8AF005F0AA1D
:040348000AAB0BAC45
:05034C000CAD0D800D59
:0D035100C3ED13FDEC13FCEB13FBEA13FAF4
:0A035E00D5F0F0EA139207E51275DE
:0C036800F003A4FAABF0AC187D00ECB57B
:0A037400020EEDB5030A751800C271
:06037E0007751605800260
:0203840005185A
:03038600A20722A9
:0A03890075F003E51884F4FAAB12D6
:0C039300C3E49BFBEAC39BFAE518701C56
:05039F00F50EF50FF55D
:0A03A40010F511748055A8FB53A852
:0D03AE007F75B2905386EF75B2D0EB42A878
:0C03BB0075F003E51884ABF0BB022C3099
:0E03C70084298AF005F07A017B007C007D001D
:0203D500800C9A
:0C03D700EA2AFAEB33FBEC33FCED33FDBB
:0A03E300D5F0F1EA420EEB420FECF8
:0503ED004210ED421179
:0A03F200E51275F003A4FAABF0ACBD
:0C03FC00187D00ECB5020BEDB503077591
:0604080018007516052224
:03040E00051822AC
:0A041100D208E5187018C284748048
:0E041B0055A8FA53A87F75B29043861075B2AB
:06042900D0EA42A8C2085F
:09042F007402B518087518007577
:040438001606800222
:02043C000518A1
:03043E00A20822EF
:06044100E4B51502800E77
:070447007401B51502800EDF
:07044E007402B51515800EC4
:070455001202529283800C99
:07045C001202849283800567
:05046300120268928303
:09046800E51624FA4042E51625D0
:0404710016251690A6
:0304750004787395
:0704780002048A0204910254
:06047F00049802049F0234
:0504850004A60204AB17
:07048A001202C49284801FDE
:070491001202DE92848018C4
:070498001202FB92848011A7
:07049F001203319284800A70
:0504A60012038980052E
:0504AB0012041192840F
:0704B0007406B51602800579
:0504B7007403B51508F7
:0704BC00751800751700C25E
:0104C3000038
:0104C4002215
:0904C50075D97175DA0075DC01CE
:0A04CE00E5DC30E00553D8FE80F6AF
:0C04D80075D98075DA0075DB4175D81508
:0E04E400E5D820E1FB75D9C075DA0075DB4361
:0304F20075D815A5
:0E04F500E5D820E1FB75D80475DB0075DC004E
:0305030075D83573
:0E050600E5D820E1FB75DB0375DC0075D83508
:0E051400E5D820E1FB75DB5F75DC1875D83586
:0B052200E5D820E1FB75DD6075D845D1
:0E052D00E5D820E1FB75DB0075DC0075DD0014
:03053B0075D871FF
:0E053E00E5D820E1FB75B20243900843910816
:0D054C0075B20043910875D97175DA009001
:0E0559000002E4F5F074021206A19000027593
:0E056700F00174021206A175D90775DA04902E
:0E057500000075F0A8740E12065D75D808908F
:0E058300000075F08074C112065D75D80890F6
:0E0591000000E4F5F012065D75D80890000039
:0E059F00E4F5F012065D75D80890FFFF75F0C8
:0E05AD00FF743F12065D75D808900000E4F55B
:0E05BB00F012065D75D808900000E4F5F0120D
:0E05C900065D75D80890000075F002740412EB
:0E05D700065D75D90F75DA0490000075F0A866
:0E05E500740E12065D75D80890000075F0C007
:0E05F30074C112065D75D808900000E4F5F0A2
:0D06010012065D75D808900000E4F5F012B7
:0E060E00065D75D80890FFFF75F0FF743F126F
:0E061C00065D75D808900100E4F5F012065D49
:0E062A0075D808900000E4F5F012065D75D852
:0E0638000890000075F002E412065D75D9C04E
:0606460075DA0075D80012
:0B064C00E5D820E1FB53DBBE75D811A0
:06065700E5D820E1FB22C2
:0A065D00AA82AB83ACF0FD8A238B68
:04066700248C258D2D
:05066B00268523DB855C
:0606700024DC8525DD8578
:0506760026DE75D8F13D
:06067B00E5D820E1FB229E
:0306810075D80029
:0A068400E5D820E1FB85DB2785DCCB
:06068E002885DD2985DE50
:050694002A8527828584
:0606990028838529F0E52D
:02069F002A220D
:0606A10012065D75DC018C
:0A06A700E5DC30E00553D8FE80F6D4
:0106B1002226
:0206B200AA821A
:0E06B400E5D820E1FBC0D9C0DAC0DBC0DCC055
:0B06C200DDC0DEEAC40354F8F5328509
:0C06CD0032D9EA75F008A4FAACF08A05F6
:0B06D90074042CFE7D008EDA75D80042
:0A06E400E5D820E1FBAD2BAE2CAFF2
:0C06EE002D8D828E838FF0E5DE121BDB69
:0C06FA0074042532F5D974042A74043C01
:08070600F9780089DA75D800CA
:0E070E00E5D820E1FB740A2DF8E43EF98F03D4
:0E071C00888289838BF0E5DB121BDB740A2DCB
:07072A00F52FE43EF5308FCE
:08073100317401252FFBE435B2
:0A07390030F8A9318B82888389F023
:0C074300E5DC121BDB7402252FFBE43503
:0A074F0030F8A9318B82888389F00D
:0C075900E5DD121BDB7403252FFBE435EB
:0A07650030F8A9318B82888389F0F7
:0B076F00E5DE121BDB75D80475D80016
:0E077A00E5D820E1FB740E2DF8E43EF98F0364
:0E078800888289838BF0E5DB121BDB740E2D5B
:0E079600FBE43EF88F01C005C006C0077401E9
:0E07A4002BFDE438FE89078D828E838FF0E5F1
:0E07B200DC121BDB74022BFDE438FE89078D80
:0E07C000828E838FF0E5DD121BDB74032BFBB2
:0E07CE00E438F88B82888389F0E5DE121BDBAD
:0C07DC0074072532F5D974072A74043C18
:0E07E800FD7B008DDA75D800D007D006D00555
:0E07F600E5D820E1FBE5DC30E328C002C004BA
:0E08040074012DFBE43EF88F018B82888389FE
:0E081200F0121D22FA4302088B82888389F0BF
:08082000EA121BDBD004D00238
:0608280075D80875D80028
:0D082E00E5D820E1FBE5DE20E503020946E8
:0E083B00C002C00474022DFBE43EF88F018B56
:0E08490082888389F0E5DB121BDB74022DF53B
:060857002FE43EF5308F96
:08085D00317401252FFAE43586
:0A08650030FCAB318A828C838BF0EB
:0C086F00E5DC121BDB7402252FFAE435D7
:0A087B0030FBAC318A828B838CF0D5
:0C088500E5DD121BDB7403252FFAE435BF
:0A08910030FBAC31741F55DEF88A0D
:0E089B00828B838CF0121BDB75D80875D80891
:0A08A90075D80875D800D004D002FD
:0E08B300E5D820E1FBC002C00474062DFBE472
:0D08C1003EF88F018B82888389F0E5DB1201
:0A08CE001BDB74062DF52FE43EF548
:0608D800308F3174012590
:0708DE002FFAE43530FCABFA
:0C08E500318A828C838BF0E5DC121BDB77
:0A08F1007402252FFAE43530FBAC49
:0C08FB00318A828B838CF0E5DD121BDB60
:0A0907007403252FFAE43530FBAC31
:0C09110031741F55DE8A828B838CF0123B
:0E091D001BDB74012DFAE43EFB8F048A828BF3
:0E092B00838CF0121D22F84300048A828B8315
:0D0939008CF0E8121BDBD004D002020AE1B2
:0E094600C002C00474022DFBE43EF88F017461
:0E095400FC55DD0303543F8B82888389F0122B
:0A0962001BDB74022DF52FE43EF5B7
:06096C00308F31740125FB
:050972002FF533E43510
:0409770030F534859E
:07097B003135741F55DE85C4
:06098200338285348385F9
:0809880035F0121BDB7402259F
:070990002FFBE43530FCAA47
:0C099700318B828C838AF0E4121BDB742D
:0909A30003252FFAE43530FBAC0A
:0C09AC00318A828B838CF0E4121BDB8507
:0609B800338285348385C3
:0C09BE0035F0121D225403030354C0F551
:0509CA002E853382853B
:0609CF0034838535F012AF
:0A09D5001D220303543F8533828581
:0609DF0034838535F0129F
:0E09E5001BDB74022DFAE43EFB8F048A828B2A
:0C09F300838CF0121D22F8E52E28F88AF3
:0E09FF00828B838CF0121BDB75D80875D8082C
:0A0A0D0075D80875D800D004D00297
:0E0A1700E5D820E1FBC002C00474062DFBE40C
:0E0A25003EF88F0174FC55DD0303543F8B82B5
:0C0A3300888389F0121BDB74062DF5335C
:090A3F00E43EF5348F3574012505
:050A480033F52FE43539
:040A4D0034F53085C7
:070A51003531741F55DE85ED
:060A58002F82853083852A
:080A5E0031F0121BDB740225CC
:070A660033FBE43534FCAA68
:0C0A6D00358B828C838AF0E4121BDB7452
:090A7900032533FAE43534FBAC2B
:0C0A8200358A828B838CF0E4121BDB852C
:060A8E002F8285308385F4
:0C0A940031F0121D225403030354C0F57E
:050AA0002E852F828568
:060AA50030838531F012E0
:0A0AAB001D220303543F852F8285AE
:060AB50030838531F012D0
:0E0ABB001BDB74062DFAE43EFB8F048A828B4F
:0C0AC900838CF0121D22F8E52E28F88A1C
:0C0AD500828B838CF0121BDBD004D0025B
:0C0AE10074022532F5D974022A74043C1A
:080AED00FC7A008CDA75D800D8
:0E0AF500E5D820E1FB74122DFAE43EFB8F04DD
:0E0B03008A828B838CF0E5DD121BDB74122DD1
:090B1100FDE43EFE0DBD00010EE5
:0E0B1A008D828E838FF0E5DE121BDBD0DED0E5
:0A0B2800DDD0DCD0DBD0DAD0D9221A
:040B3200AA827B0018
:0E0B3600E5D820E1FBC0D9C0DAC0DBC0DCC0CE
:0E0B4400DDC0DEEAC40354F8FC74072CF5D9BA
:0E0B5200EA75F008A42407740435F0FC7A005C
:050B60008CDA75D800DD
:0E0B6500E5D820E1FBE5DC20E01675DB20750D
:0B0B7300DC0075DD0075DE0075D8F1B8
:070B7E00E5D820E1FB7B013B
:0E0B8500D0DED0DDD0DCD0DBD0DAD0D98B8250
:010B9300223F
:040B9400AA827B00B6
:0E0B9800E5D820E1FBC0D9C0DAC0DBC0DCC06C
:0E0BA600DDC0DEEAC40354F8FC74072CF5D958
:0E0BB400EA75F008A42407740435F0FC7A00FA
:050BC2008CDA75D8007B
:0C0BC700E5D820E1FBE5DB30E3027B0118
:0E0BD300D0DED0DDD0DCD0DBD0DAD0D98B8202
:010BE10022F1
:020BE200AA82E5
:0E0BE400E5D820E1FBC0D9C0DAC0DBC0DCC020
:0E0BF200DDC0DEEAC40354F8FB74072BF5D90E
:0E0C0000EA75F008A42407740435F0FB7A00AE
:0E0C0E008BDA75DB0075DC0075DD2075DE0706
:030C1C0075D8F197
:0E0C1F00E5D820E1FBD0DED0DDD0DCD0DBD08C
:040C2D00DAD0D9221E
:020C3100AA8295
:0E0C3300E5D820E1FBC0D9C0DAC0DBC0DCC0D0
:0E0C4100DDC0DEEAC40354F8FB74072BF5D9BE
:0E0C4F00EA75F008A4FAACF074072A74043CAD
:0E0C5D00FE7D008EDA75DB2075DC0075DD0093
:060C6B0075DE0075D8F1F2
:0E0C7100E5D820E1FB74062BF5D974062A7431
:0A0C7F00043CFE8EDAAD36AE37AF4E
:0C0C890038C00374012DF8E43EF98F031D
:0E0C9500888289838BF0121D22F8D00320E2A2
:040CA30003020DB388
:030CA70075D800FD
:0E0CAA00E5D820E1FBC00353DEE074022DF814
:0E0CB800E43EF98F03888289838BF0121D229F
:0A0CC600F5DB74022DF53AE43EF56B
:060CD0003B8F3C7401257E
:070CD6003AFBE4353BF8A9ED
:0C0CDD003C8B82888389F0121D22F5DC1C
:0A0CE9007402253AFBE4353BF8A93C
:0C0CF3003C8B82888389F0121D22F5DD05
:0A0CFF007403253AFBE4353BF8A925
:0C0D09003C8B82888389F0121D22FB7451
:0E0D15001F5BF5F0742045F042DE75D8F1D07A
:010D230003CC
:0E0D2400E5D820E1FB75D80875D80875D80809
:030D320075D80071
:0E0D3500E5D820E1FBC00353DEE074062DF884
:0E0D4300E43EF98F03888289838BF0121D2213
:0A0D5100F5DB74062DF53AE43EF5DB
:060D5B003B8F3C740125F2
:070D61003AFBE4353BF8A961
:0C0D68003C8B82888389F0121D22F5DC90
:0A0D74007402253AFBE4353BF8A9B0
:0C0D7E003C8B82888389F0121D22F5DD79
:0A0D8A007403253AFBE4353BF8A999
:0C0D94003C8B82888389F0121D22FB74C6
:090DA0001F5B42DE75D8F1D0039F
:080DA900E5D820E103020E9ED3
:020DB10080F6CA
:030DB30075D800F0
:0E0DB600E5D820E1FBC00353DEC074022DF52A
:060DC4003AE43EF53B8F0E
:050DCA003C853A828522
:060DCF003B83853CF0129D
:0C0DD5001D2254C023235403F53975DBA4
:0A0DE1000075DC00853A82853B8333
:0C0DEB00853CF0121D2225E025E0F5DD1E
:0E0DF70074022DFBE43EF88F010BBB000108D7
:0E0E05008B82888389F0121D22540725E02578
:0C0E1300E0FBE5392B42DE75D8F1D0037E
:0E0E1F00E5D820E1FB75D80875D80875D8080D
:030E2D0075D80075
:0E0E3000E5D820E1FBC00353DEE074062DF58B
:060E3E003AE43EF53B8F93
:050E44003C853A8285A7
:060E49003B83853CF01222
:0C0E4F001D2254C023235403F53975DB29
:0A0E5B000075DC00853A82853B83B8
:0C0E6500853CF0121D2225E025E0F5DDA3
:0E0E710074062DFBE43EF88F010BBB00010858
:0E0E7F008B82888389F0121D22540725E025FE
:0C0E8D00E0FBE5392B42DE75D8F1D00304
:050E9900E5D820E1FB9B
:0E0E9E0074022BF5D974022A74043CF989DA27
:0E0EAC00C00374122DF8E43EF98F038882898A
:0E0EBA00838BF0121D22F5DD74122DFBE43E39
:080EC800F88F010BBB000108CB
:0E0ED0008B82888389F0121D22F5DE75D8C151
:020EDE00D0033F
:0E0EE000E5D820E1FB75D80875D8088D828E04
:0B0EEE00838FF0121D22F5DE75D88105
:0E0EF900E5D820E1FB74072BF5D974072A74A5
:0A0F0700043CFC7A008CDA75D80077
:0D0F1100E5D820E1FBE5DC20E303021046FB
:0E0F1E0075D80875D808740E2DFAE43EFB8FC6
:0E0F2C0004C005C006C0078A828B838CF012B9
:090F3A001D22F8A3121D22A312CE
:0E0F43001D22A3121D22790088DB8A828B8377
:0C0F51008CF0121D22A3121D22FEA31220
:0E0F5D001D22A3121D228EDC8A828B838CF053
:090F6B00121D22A3121D22A31283
:0E0F74001D22FFA3121D2278008FDD8A828BC2
:0C0F8200838CF0121D22A3121D22A3126A
:0E0F8E001D22A3121D22FD7A007B007C008D27
:0A0F9C00DE75D8F1D007D006D005AD
:0E0FA600E5D820E1FB75D808740A2DFDE43E65
:0D0FB400FE8D828E838FF0121D22FAA31293
:080FC1001D22A3121D22A31240
:0E0FC9001D228ADB8D828E838FF0121D22A3E3
:0A0FD700121D22FBA3121D22A3121B
:0E0FE1001D228BDC8D828E838FF0121D22A3C9
:0A0FEF00121D22A3121D22FCA31202
:0E0FF9001D227B0078008CDD8D828E838FF0B0
:09100700121D22A3121D22A312E6
:0E1010001D22A3121D22FA7D007E007F008AA1
:04101E00DE75D8F1B2
:0E102200E5D820E1FB75D80475D80475D80414
:0E10300075DB4075DC0075DD2875DE0675D8B1
:01103E00F1C0
:07103F00E5D830E11680F94D
:0E10460075DB4075DC0075DD2075DE0075D8A9
:01105400F1AA
:05105500E5D820E1FBDD
:0D105A00D0DED0DDD0DCD0DBD0DAD0D92262
:02106700AA825B
:0E106900E5D820E1FBC0D9C0DAC0DBC0DCC096
:0E107700DDC0DEEAC40354F8FB74072BF5D984
:0E108500EA75F008A42407740435F0FB7A0025
:0E1093008BDA75DB0075DC0075DD0875DE009C
:0310A10075D8F10E
:0E10A400E5D820E1FB75D80875D80875D80886
:0410B200853D4085B3
:0310B6003E418533
:0310B9003F42852E
:0610BC004082854183859E
:0810C20042F0121D22FDA312F1
:0A10CA001D22FEA3121D22FFA31237
:0E10D4001D22F88D0189DB8E038BDC7A007BF8
:0E10E200008F0479008CDD7D007E007F008889
:0410F000DE75D8F1E0
:0C10F400E5D820E1FB7404F5D82540F598
:051100003DE43541F55E
:031105003E8542E2
:041108003FAA3DAB12
:0A110C003EAC3F8A828B838CF01208
:0A1116001D22FAA3121D22FBA312F2
:0E1120001D22FCA3121D22FD8A068EDB8B070A
:0E112E008FDC7E007F008C00790088DD7A0067
:09113C007B007C008DDE75D8F10A
:0E114500E5D820E1FB75D80475D80475DB40B1
:0C11530075DC0075DD2075DE0075D8F13C
:0E115F00E5D820E1FBD0DED0DDD0DCD0DBD047
:04116D00DAD0D922D9
:04117100AA827B00D3
:0E117500E5D820E1FBC0D9C0DAC0DBC0DCC089
:0E118300DDC0DEEAC40354F8FC74072CF5D975
:0E119100EA75F008A42407740435F0FC7A0017
:05119F008CDA75D80098
:0E11A400E5D820E1FB740155DCFA740855DB38
:0E11B2004A701375DB20F5DCF5DDF5DE75D82F
:0111C000F13D
:0711C100E5D820E1FB7B01F2
:0E11C800D0DED0DDD0DCD0DBD0DAD0D98B8207
:0111D60022F6
:0411D700AA827B006D
:0E11DB00E5D820E1FBC0D9C0DAC0DBC0DCC023
:0E11E900DDC0DEEAC40354F8FC74072CF5D90F
:0E11F700EA75F008A42407740435F0FC7A00B1
:051205008CDA75D80031
:0E120A00E5D820E1FBE5DB30E41675DB10755E
:0B121800DC0075DD0075DE0075D8F10C
:07122300E5D820E1FB7B018F
:0E122A00D0DED0DDD0DCD0DBD0DAD0D98B82A4
:011238002293
:02123900AA8287
:0E123B00E5D820E1FBC0D9C0DAC0DBC0DCC0C2
:0E124900DDC0DEEA030354C0FB74852BF5D92B
:0E125700EA75F040A42485E435F0FB7A008BA4
:04126500DA75D8005E
:0E126900E5D820E1FB85DC82D0DED0DDD0DCD4
:07127700D0DBD0DAD0D92250
:02127E00AA8242
:0E128000E5D820E1FBC0D9C0DAC0DBC0DCC07D
:0E128E00DDC0DEEA030354C0FB74852BF5D9E6
:0E129C00EA75F040A42485E435F0FB7A008B5F
:0412AA00DA75D80019
:0E12AE00E5D820E1FB85DB82D0DED0DDD0DC90
:0712BC00D0DBD0DAD0D9220B
:0E12C30075A30175A60075A700759C02759DA8
:0E12D10000759E01759F0075A40175A500753E
:0E12DF00A30075FE0175FF00759A00759B0057
:0E12ED00759E00759F0075A30275FA0075FBD3
:0E12FB000075FE0075FF0075FC2075FD007586
:0E130900A700759A00759B0275A600759E00E0
:0E131700759F00759C00759D0075A30375FF02
:0E13250020759E00759F0075A40075B20243EE
:0E133300B02053B1DF75B20043B12075A300A6
:07134100759C40759D4022E0
:0E13480075BB00C28875A83175E81075B70036
:0713560075BA0075B3002217
:0C135D00C022C0E0C0F0C082C083C0020B
:0E136900C003C004C005C006C007C000C0011C
:0E137700C0D075D000C08F538FFE75BFB0532D
:0E138500B4FE1219A675BFF0D08FD0D0D001E3
:0E139300D000D007D006D005D004D003D00281
:0B13A100D083D082D0F0D0E0D0223208
:0713AC007586987591C022BF
:0B13B300AA82AB837C107D00AE46AF29
:0113BE0047E7
:0813BF001CEC2543F548E43560
:0413C70044F549851B
:0313CB00454A8E02
:0A13CE00748F758A828B83C002C001
:0E13D80003C004C005C006C007121BF4A882A3
:0E13E600A983D007D006D005D004D003D002D2
:0A13F40074302885488285498385FE
:0613FE004AF0121BDB8522
:0614040048828549838542
:0C140A004AF0121D22F8C374B988F06388
:0A141600F08095F0501D8548828596
:061420004983854AF01229
:0B1426001D22F8740728F88548828515
:061431004983854AF01218
:021437001BDBBD
:0A1439008E748F758A828B83C004C5
:0E144300C005C006C007121A13AA82AB83D0E0
:0E14510007D006D005D004EA4B60030213BF9B
:0A145F008D020DEA2543FAE435443E
:0A146900FBAE458C070CEF2543FF96
:0A147300E43544F8A9458F82888310
:0D147D0089F0121D22FF8A828B838EF012EF
:05148A001BDBBC10009B
:0A148F0040CEED2543FDE43544FA9C
:0C149900AB458D828A838BF0E4021BDBE4
:0C14A500AA82E583FB30E744740AB54ED0
:0714B10006E4B54F028002C2
:0214B80080377B
:0514BA00AC4BAD4CAE8F
:0C14BF004D8C828D838EF0742D121BDB8F
:0A14CB0074012CF54BE43DF54C8E46
:0B14D5004DC3E49AF582E49BF583858B
:0314E0004B4385F6
:0314E3004C4485F1
:0314E6004D4585EC
:0314E9004E4685E7
:0314EC004F470265
:0214EF0013B335
:0414F100854B43855F
:0314F5004C4485DF
:0314F8004D4585DA
:0314FB004E4685D5
:0714FE004F478A828B830235
:0215050013B31E
:03008C00E478FF16
:03008F00F6D8FDA3
:0C00920075BF0375B3F075BF007800E87F
:07009E00440060077900E453
:0400A500F309D8FC87
:0800A90078E8E84404600C79DA
:0500B1000590F000E4E1
:0600B600F0A3D8FCD9FA0A
:0715070043A82043E8142271
:0E150E00C0E0C0F0C002C003C004C005C006AB
:0C151C00C0D075D000755000C08F538FF8
:01152800FEC4
:0E152900E5D820E1FBC0D9C0DAC0DBC0DCC0D1
:0B153700DDC0DE75BF9010C702800011
:08154200E5B620E00302167576
:0C154A0053B6FE75D9C175DA0075D800E3
:0E155600E5D820E1FBAADB75D9C175DA005398
:09156400023FEAF4F5DB75D81131
:0E156D00E5D820E1FB75D97075DA0075DB83D7
:0C157B0075DC0075DD0075DE0075D8F130
:0E158700E5D820E1FB75D95075DA0075D80063
:0D159500E5D820E1FBAADBBA2003021675A1
:0E15A200EAC40354F8FB74072BF5D9EA75F080
:0E15B00008A42407740435F0FC7B008CDA7567
:0215BE00D80053
:0C15C000E5D820E1FB85DB508AF005F047
:0A15CC007B017C007D007E00800C96
:0C15D600EB2BFBEC33FCED33FDEE33FEA1
:0815E200D5F0F18B518C528D04
:0A15EA00538E5475D94875DA00E5F8
:0A15F40051F4F5DBE552F4F5DCE5F7
:0A15FE0053F4F5DDE554F4F5DE7555
:02160800D8F117
:0C160A00E5D820E1FBE55030E12FEAC4F8
:0E1616000354F8FB74072BF5D9EA75F008A40D
:0E1624002407740435F0FC7B008CDA75DB0AB9
:0C16320075DC0075DD0075DE0075D8F178
:05163E00E5D820E1FBEE
:0E16430075D97075DA0075DB8375DC0075DD16
:071651000075DE0075D8F101
:0E165800E5D820E1FB75D95075DA0075D80091
:0C166600E5D820E1FBAADBBA20028003DB
:031672000215A2BC
:0E16750075BFD0D0DED0DDD0DCD0DBD0DAD037
:0E168300D9D08FD0D0D006D005D004D003D05F
:0616910002D0F0D0E032AF
:0716970090F00075F0002245
:0C169E00C022C0E0C0F0C082C083C002C7
:0E16AA00C003C004C005C006C007C000C001D8
:0E16B800C0D075D000C08F438F0110C70280D4
:0116C6000320
:0316C700121825D1
:0E16CA00D08FD0D0D001D000D007D006D005F0
:0E16D800D004D003D002D083D082D0F0D0E076
:0316E600D02232DD
:0E16E900C0E0C08F538FFE75BFA3E5B430E0A4
:0416F7000353B4FEE7
:0816FB0075BFE3D08FD0E0328F
:0E170300758902758A00758C10758B00758DC6
:021711000022B4
:0E17130075C4D075C58A75C2D075C38A75C1FC
:0417210018D2C222F6
:0E172500438F0175C43075C5F875C23075C3A9
:0A173300F875C100D2C2538FFE22E8
:0500F000E4F555F55692
:08173D0085827485837585F037
:05174500767557537595
:06174A00584975595A755B
:061750005A52755B45755D
:061756005C52755D527546
:06175C005E4F755F52753F
:06176200600075610090BB
:0A176800F3E875F000121B44E4F5ED
:0417720055F5569043
:09177600F3E8E0F58212181E05EB
:06177F0055E4B55502051A
:01178500560D
:011786002240
:0E17870075B2025390FD43910275B20043917A
:0E1795000253B3FE75BD0075985075BE9B43A0
:0517A300BD01D2AC22E3
:0C17A800C022C0E0C0F0C082C083C002BC
:0E17B400C003C004C005C006C007C000C001CD
:0E17C200C0D075D000C08F538FFE75BF801051
:0417D0009902801DDD
:0717D400E55524E8F582E56C
:0A17DB005634F3F583E0FA600D8A3E
:0817E5008212181E0555E4B53F
:0417ED005502055646
:0517F1001098028000C9
:0E17F60075BFC0D08FD0D0D001D000D007D0AA
:0E18040006D005D004D003D002D083D082D00D
:06181200F0D0E0D022320C
:06181800C29885998222AE
:07181E00AA82C2998A9922F7
:0600F500E4F562F563F57D
:0500FB0064F565E4F569
:0401000066F567F544
:0501040068F569E4F557
:050109006AF56BE4F54E
:05010E006CF56DE4F545
:030113006EF56F17
:0818250012193F40030218B341
:07182D001219421218D50543
:061834006AE4B56A02053A
:01183A006B42
:0E183B00121942AA82AB83C374309A74F58BE3
:0E184900F063F08095F04017121942AA82ABAE
:0D18570083C3EA94D0EB6480940A4005122C
:04186400193C500AD1
:07186800056CE4B56C0905F5
:03186F006D800584
:05187200E4F56CF56DCA
:0A18770074F4B56A307401B56B2BF0
:071881007574F47575017523
:0618880076007577008573
:06188E0062828563838580
:0518940064F0E565129F
:071899001C41858266858376
:0518A0006785F068F50A
:0518A5006912190B128D
:0218AA0018F430
:0718AC00E4F56EF56F800802
:0718B300056EE4B56E0205AD
:0118BA006FBE
:0A18BB007405B56C06E4B56D0280FB
:0118C5000C16
:0A18C6007405B56E06E4B56F0280EC
:0118D0000116
:0118D10022F4
:0318D20002193BBD
:0C18D500AA82E583FB3395E0FCFDEA25C8
:0518E10062F562EB3529
:0518E60063F563EC3521
:0518EB0064F564ED3519
:0418F00065F5652213
:0618F400E4F562F563F566
:0418FA0064F565F537
:0418FE0066F567F52F
:0519020068F569E4F541
:041907006AF56B22F0
:0A190B00AA82AB838A70EBF57133FA
:0A19150095E0F572F573758200127B
:08191F000B32E5826015753DF5
:0319270070753E9A
:08192A0000753F4075820012B8
:081932001067C287C297C2963C
:01193A00228A
:01193B002289
:06011600E4F51CF51DC21A
:03011C0009C20A0B
:03193C00A20A22DA
:03193F00A20922D8
:07194200851C82851D832234
:0D19490012020E75820112016575820012F6
:0C195600016175821112020690034A1212
:0919620001D112022F758201125D
:06196B00016112022F12BF
:0E1971000221AA82AB83BA4A05BB03028002A0
:02197F00D32271
:0E198100758200120165758200120161758287
:0B198F00041202069000011201D112A8
:02199A00022F1A
:0A199C0012021240FB12020AC322DD
:0E19A60075820412016575820112016175825D
:0819B4001212020612022F12AA
:0E19BC000221E5828583F02404F582E435F0F3
:0E19CA00F583121CC7AA82AB83ACF0FDC002ED
:0E19D800C003C004C00590EB8575F00174409B
:0E19E600121A3CAA82AB83ACF0FDE58124FC12
:0E19F400F5818A828B838CF0ED121C93858224
:051A02001C85831D128C
:0A1A07000228AA82EAA2E1920AD2A4
:021A11000922A8
:0E1E010075BF0143B70843B70443B60453B698
:031E0F00F7780A57
:041E1200D9FED8FC21
:031E160043B602CE
:0E1E1900E5B620E1FB30E0F543B70853B7FB18
:0C1E270075BB9853B70F43B7A043B70238
:0C1E3300E5B730E0FB53B7F775BF0022A5
:051A13007A10E4FBFC69
:0E1A1800E58225E0F582E58333F583EB33FBB1
:0A1A2600EC33FCEB9574F5F0EC9541
:091A3000754006FCABF043820195
:031A3900DADD22D1
:061A3C00121B84BC000334
:031A4200021CF48F
:081A4500EF60FA30D502B2D1C6
:081A4D00E583B4FF03021D0A4A
:081A5500E582B4FF03021D0A43
:0B1A5D00258340072482400B021CF48C
:081A68002483145003021D0A3F
:0E1A7000F582EA8DF0A4A8F0EA8EF0A428F822
:0E1A7E00E435F0F9EB8DF0A428E935F0F9E439
:0E1A8C0033CA8FF0A429F9EA35F0FAEBF88E90
:0E1A9A00F0A429F9EA35F0FAE433FBEC8DF004
:0E1AA800A429F9EA35F0FAE43BFBE88FF0A43C
:0E1AB6002AFAEB35F0FBE433CCFD8EF0A42AC7
:0E1AC400FAEB35F0FBE43CFCED8FF0A42BFBBD
:0A1AD200EC35F0FC20E703121BB214
:031ADC00021CD316
:081ADF00FB7A20E4FCFDFEFF90
:0E1AE700E5822582F582E58333F583E5F03351
:0B1AF500F5F0EB33FB4017DAE980420C
:0E1B0000E5822582F582E58333F583E5F03337
:051B0E00F5F0EB33FBD4
:0E1B1300EC33FCED33FDEE33FEEF33FFEC95CB
:061B210074ED9575EE95D0
:081B270076EF95774013EC9571
:081B2F0074FCED9575FDEE95C7
:091B370076FEEF9577FF43820171
:021B4000DABE0B
:021B4200EB2294
:081B440085827785837885F026
:041B4C0079AD74AE4D
:041B500075AF76A84F
:041B540077A978AA4B
:011B58007913
:0E1B59008D828E838FF0121D22FBA3AD82AE13
:0E1B670083888289838AF0EB121BDBA3A8829D
:0A1B7500A983EB70DF857782857885
:051B7F00838579F022CE
:0D1B8400AA82AB83A2F73392D16002D2F7A0
:0E1B9100F582ACF0E58124F9F8E6FD08E6FEE9
:0E1B9F000886F008E6A2F73392D56002D2F76E
:051BAD00F583AFF022FA
:021BB2007804B5
:0E1BB400EC700DC9CACBFCE58224F8F582D88E
:021BC200F1220E
:021BC400782087
:0E1BC60020E7111582C3E933F9EA33FAEB3355
:061BD400FBEC33FCD8EC31
:011BDA0022E8
:0E1BDB0020F71030F6118883A88220F507F657
:051BE900A883758300D4
:011BEE0022D4
:031BEF00F280F78A
:021BF200F022DF
:080068007900E94400601D7AF3
:0B0070000043A201901E0153A2FE906D
:02007B00F4E8A7
:0E007D00E443A20193A353A2FEF0A3D9F3DA49
:01008B00F183
:081BF400E574457560467A01B5
:071BFC00E57425E0F574E536
:091C030075334012F575E5829578
:0A1C0C0074E583957540030A80E635
:031C1600C3E575AE
:071C190013F575E57413F5E6
:011C2000744F
:0A1C2100C3E5829574F5F0E58395A4
:081C2B00754005F58385F08288
:071C3300C3E57513F575E52B
:061C3A007413F574DAE1F9
:011C40002281
:0E1C4100FBC2D530E715D2D5E4C39582F582FB
:0D1C4F00E49583F583E495F0F5F0E49BFB4C
:0A1C5C00E57730E717B2D5E4C39531
:051C660074F574E49523
:051C6B0075F575E4951C
:051C700076F576E49515
:031C750077F57789
:0E1C7800EB121ADF30D513FBE4C39582F58220
:0C1C8600E49583F583E495F0F5F0E49B11
:011C9200222F
:0E1C9300121D51700AE582458345F070012252
:011CA100E45E
:031CA20030D1122C
:0E1CA500F4700BE5F0F47006E58330E70122E1
:041CB30090800022FB
:0C1CB700700AE5F07006E58320E70122CA
:041CC300907FFF22ED
:0C1CC700E4AC83AB82FAF9748E021D4776
:061CD300B98003EA13B31F
:0E1CD9004010EA2401FAE43BFBE43CFC50041A
:041CE7007C80058276
:091CEB00BC000EBB000BBA00089E
:081CF400E4F5F0F583F582220E
:0E1CFC00A2D1E582138CF092F78B838A8222AC
:0D1D0A00E4F583F58275F080F4A2D1132278
:0B1D1700E4F583F58275F0C0747F22B4
:03005B0075817F2D
:0A005E00121E01E582600302005645
:0E1D220020F71430F6148883A88220F507E617
:061D3000A8837583002268
:031D3600E280F751
:031D3900E493220E
:021D3C00E022A3
:091D3E00FCABF0AA83A982749E9B
:021D4700C2D107
:081D4900F582121BB2021CD34B
:0A1D5100121DACC3749E9582403948
:081D5B007900121DBE30D126F3
:0E1D6300E9F42401F582EAF43400F583EBF490
:0E1D71003400F5F0ECF43400700AE58245838E
:051D7F0045F070012297
:011D8400E47A
:041D850030E70F2212
:0B1D8900EC20E71489828A838BF02293
:031D940030D10A41
:0A1D9700E4F582F583F5F074802274
:0B1DA10074FFF582F583F5F0747F22DB
:0D1DAC00AA82AB83A2F73392D16002D2F776
:051DB900F582ACF022F0
:091DBE006040F82582500274FF18
:0E1DC700F582E824F8501ECCCBCAF9E4CC24F7
:0E1DD500F85014CBCAF9E4CB24F8500BCAF92D
:091DE300E4CA24F850037900223F
:051DEC0024086010F85E
:0E1DF100C3EC13FCEB13FBEA13FAE913F9D869
:011DFF00F1F2
:011E000022BF
:00000001FF
